:100000000C943D020C9465020C9465020C94B906A4
:100010000C9495060C9471060C9465020C94650280
:100020000C9465020C9465020C9465020C946502B4
:100030000C9465020C9465020C9465020C946502A4
:100040000C9427060C9465020C946D050C944705DE
:100050000C9465020C9465020C9465020C94650284
:100060000C9465020C94650207634236B79BD8A7CF
:100070001A39685618AEBAAB558C1D3CB7CC5763CD
:10008000BD6DEDFD753EF6177231BF000000803F7B
:1000900008000000BE922449123EABAAAA2ABECD97
:1000A000CCCC4C3E00000080BEABAAAAAA3E000009
:1000B0000000BF000000803F000000000008417801
:1000C000D3BB4387D1133D190E3CC3BD4282AD2B38
:1000D0003E68EC8276BED98FE1A93E4C80EFFFBE30
:1000E00001C4FF7F3F00000000000000000024006A
:1000F00027002A0000000008000201000003040796
:10010000000000000000000000C201000100050026
:1001100005000300030000E1000001000F000F00D4
:100120000D000D0000960000020019001A001700D3
:100130001700127A00000700200021001D001D009A
:10014000807000000B002300230020002000004BE3
:10015000000014003700370034003400403800003D
:100160001E004B004B0048004800482600003100AC
:10017000710071006F006F00E42500003100710014
:1001800071006F006F008025000032007200720065
:1001900070007000C01200006E00E900E900E60087
:1001A000E60060090000E500D801D801D501D501BD
:1001B000B0040000D301B403B403B103B103580287
:1001C0000000B40367076707620762072C0100009D
:1001D0006707DD0EDD0EDA0EDA0E200072706D009C
:1001E00052504D204D61696E0072706D0052504D3D
:1001F000204D6F746F7200524354002020205250E3
:100200004D2D53656E736F720020524354204A6522
:10021000746920546F6F6C73005072657373203C67
:1002200020746F20657869740056616C7565732061
:1002300073746F726564210020202052504D2D533D
:10024000656E736F720020524354204A65746920B2
:10025000546F6F6C73004261636B3A203C005361D2
:1002600076653A20557020616E6420446E005365B7
:10027000742055702F446E204E6578743E0047659B
:100280006172204D61696E3A20005365742055708B
:100290002F446E204E6578743E0047656172204D94
:1002A0006F746F723A20005365742055702F446E3E
:1002B000204E6578743E004D61696E004D6F746F1D
:1002C0007200204D61676E2E206F6E2000536574A2
:1002D0002055702F446E204E6578743E0053656E35
:1002E000736F72206F6E204D61696E0053656E737F
:1002F0006F72206F6E204D6F746F72003A00526102
:1003000074696F3A20004D61696E004D6F746F72B1
:1003100000204D61676E2E206F6E2000202020523D
:10032000504D2D53656E736F720020524354204A16
:1003300065746920546F6F6C730000070E091C1BF5
:100340001215383F363124232A2D70777E796C6B55
:100350006265484F464154535A5DE0E7EEE9FCFBC5
:10036000F2F5D8DFD6D1C4C3CACD90979E998C8BB5
:100370008285A8AFA6A1B4B3BABDC7C0C9CEDBDC25
:10038000D5D2FFF8F1F6E3E4EDEAB7B0B9BEABAC15
:10039000A5A28F88818693949D9A2720292E3B3C85
:1003A00035321F18111603040D0A5750595E4B4C75
:1003B00045426F68616673747D7A898E87809592F5
:1003C0009B9CB1B6BFB8ADAAA3A4F9FEF7F0E5E2D5
:1003D000EBECC1C6CFC8DDDAD3D4696E6760757245
:1003E0007B7C51565F584D4A4344191E1710050235
:1003F0000B0C21262F283D3A33344E4940475255A5
:100400005C5B7671787F6A6D64633E393037222594
:100410002C2B0601080F1A1D1413AEA9A0A7B2B504
:10042000BCBB9691989F8A8D8483DED9D0D7C2C5F4
:10043000CCCBE6E1E8EFFAFDF4F300000000250084
:1004400028002B00000000002300260029000404DF
:10045000040404040404020202020202030303036C
:100460000303010204081020408001020408102048
:10047000010204081020C6118E1111241FBECFEFF7
:10048000D8E0DEBFCDBF11E0A0E0B1E0EAE5F3E3E4
:1004900002C005900D92AE3EB107D9F724E0AEEE52
:1004A000B1E001C01D92AF37B207E1F712E0CCE333
:1004B000D2E004C02197FE010E942C13CB33D10758
:1004C000C9F70E942A0B0C94A0190C940000CF923B
:1004D000DF92EF92FF920F931F93CF93DF936C0104
:1004E0007A018B01C0E0D0E0CE15DF0589F0D8019C
:1004F0006D918D01D601ED91FC910190F081E02D7F
:10050000C6010995892B11F47E0102C02196ECCF1A
:10051000C701DF91CF911F910F91FF90EF90DF9076
:10052000CF900895FC01918D828D981761F0828D96
:10053000DF01A80FB11D5D968C91928D9F5F9F7317
:10054000928F90E008958FEF9FEF0895FC01918DB9
:10055000828D981731F0828DE80FF11D858D90E026
:1005600008958FEF9FEF0895FC01918D228D892FC3
:1005700090E0805C9F4F821B91098F7399270895AB
:1005800086E692E00E94B40221E0892B09F420E083
:10059000822F0895FC01848DDF01A80FB11DA35A9D
:1005A000BF4F2C91848D90E001968F739927848F93
:1005B000A689B7892C93A089B1898C9180648C938A
:1005C000938D848D981306C00288F389E02D808175
:1005D0008F7D80830895EF92FF920F931F93CF93A7
:1005E000DF93EC0181E0888F9B8D8C8D981305C083
:1005F000E889F989808185FD24C0F62E0B8D10E0F5
:100600000F5F1F4F0F731127E02E8C8DE8120CC067
:100610000FB607FCFACFE889F989808185FFF5CF0D
:10062000CE010E94CA02F1CF8B8DFE01E80FF11DB1
:10063000E35AFF4FF0820B8FEA89FB898081806249
:1006400007C0EE89FF896083E889F9898081806429
:10065000808381E090E0DF91CF911F910F91FF9017
:10066000EF900895CF93DF93EC01888D8823C9F034
:10067000EA89FB89808185FD05C0A889B9898C91AB
:1006800086FD0FC00FB607FCF5CF808185FFF2CF46
:10069000A889B9898C9185FFEDCFCE010E94CA024D
:1006A000E7CFDF91CF91089580E090E0892B29F08A
:1006B0000E94C00281110C94000008953FB7F89485
:1006C0008091130290911402A0911502B09116022C
:1006D00026B5A89B05C02F3F19F00196A11DB11D9D
:1006E0003FBFBA2FA92F982F8827820F911DA11DD8
:1006F000B11DBC01CD0143E0660F771F881F991F14
:100700004A95D1F708952FB7F89460910F02709130
:10071000100280911102909112022FBF0895DC0106
:100720005196ED91FC915297908150968C918095C5
:1007300089238083089520916402309165022817EF
:10074000390781F49091620280916302981751F009
:10075000E0916202F0E0E251FE4F8081082E000C31
:10076000990B08958FEF9FEF0895209164023091C7
:1007700065022817390739F48FB7F894109263028D
:10078000109262028FBF0895209164023091650239
:100790002817390769F4809163022091620290E082
:1007A0008096821B910960E270E00E94F612089523
:1007B0008FEF9FEF08952091640230916502281712
:1007C0003907B9F490916202809163029817A1F001
:1007D000E0916202F0E0E251FE4F808120916202DE
:1007E00030E02F5F3F4F2F7133272093620290E05C
:1007F00008958FEF9FEF08958EEF9FEF089520E00B
:1008000001972FEF8F3F9207D9F70895EF92FF924C
:100810000F931F93CF93DF93C0916402D091650231
:10082000209709F443C08B899C890E94FF0388E0CC
:10083000E82EF12C10E001E08D899E890E94FF03D3
:10084000EE85FF8590818D85892311F0102B03C0E3
:10085000802F80951823000F81E0E81AF10861F7D6
:100860008D899E890E94FF038F89988D0E94FF03C6
:10087000809163022091620290E001968F71992726
:1008800030E08217930779F0E0916302F0E0E251E3
:10089000FE4F10838091630290E001968F7199273B
:1008A0008093630203C08D8D81608D8FDF91CF9126
:1008B0001F910F91FF90EF9008950F931F93262F94
:1008C00090E0FC01EE59FB4F6491FC01E25BFB4FB1
:1008D000E491222311F0462F01C040E0F0E0EE0F3A
:1008E000FF1FEC5BFB4F8591949100E211EA27E03A
:1008F00030E00E94E50A6115710581059105B1F0AE
:10090000DC01CB010196A11DB11D24E0880F991FC8
:10091000AA1FBB1F2A95D1F7BC01CD0133E09695E4
:100920008795779567953A95D1F703C060E070E0B9
:10093000CB011F910F910895CF92DF92EF92FF921A
:100940000F931F93CF93DF93EC01898D9A8D0097BE
:1009500029F421E030E03B832A8364C0FFB6F89499
:1009600028E030E090E081E0482F462309F09F5FC7
:10097000880F21503109C1F78E8D81119F5FE62EBE
:10098000192F1095CE010E948F03898D9A8D0496A0
:100990000E94FF0388E0C82ED12C01E0802F8E2119
:1009A00039F0E989FA8990818889892B808303C08D
:1009B000CE010E948F03898D9A8D0E94FF03000F44
:1009C00081E0C81AD10851F78E8D882339F0E98962
:1009D000FA8990818889892B808303C0CE010E9487
:1009E0008F03898D9A8D0E94FF0310FF07C0E9894C
:1009F000FA8990818889892B808303C0CE010E9467
:100A00008F03898D9A8D0E94FF03E989FA8990816D
:100A10008889892B8083FFBE8B8D9C8D0E94FF036C
:100A200081E090E0DF91CF911F910F91FF90EF90C7
:100A3000DF90CF900895CF93DF93C0E0D0E0809116
:100A40002D0490E0C817D907ECF4209761F00197C6
:100A5000C817D90741F081E020912B0430912C0474
:100A6000C217D30709F480E0FE01E958FC4F60810A
:100A700080934C048EE294E00E949C0410924C04FB
:100A80002196DDCFDF91CF9108950E94C8171F9264
:100A90000F920FB60F9211242F933F934F935F93B2
:100AA0006F937F938F939F93AF93BF93EF93FF9336
:100AB00086E692E00E94CA02FF91EF91BF91AF914A
:100AC0009F918F917F916F915F914F913F912F9166
:100AD0000F900FBE0F901F9018951F920F920FB698
:100AE0000F9211242F938F939F93EF93FF93E09195
:100AF0007602F09177028081E0917C02F0917D0294
:100B000082FD12C0908180917F028F5F8F73209150
:100B10008002821751F0E0917F02F0E0EA59FD4F28
:100B2000958F80937F0201C08081FF91EF919F910B
:100B30008F912F910F900FBE0F901F90189590E0FE
:100B4000FC01EC50FF4F3491FC01EE59FB4F249116
:100B5000FC01E25BFB4FE491EE2309F43BC033233D
:100B600039F1333091F038F43130A9F0323001F5F9
:100B700084B58F7D12C0373091F03830A1F0343019
:100B8000B9F4809180008F7D03C0809180008F77C1
:100B9000809380000DC084B58F7784BD09C080919B
:100BA000B0008F7703C08091B0008F7D8093B0003C
:100BB000F0E0EE0FFF1FE65CFB4FA591B4918FB7FD
:100BC000F894EC91611103C020952E2301C02E2BC7
:100BD0002C938FBF0895CF93DF9390E0FC01EE59E3
:100BE000FB4F2491FC01E25BFB4F8491882361F170
:100BF00090E0880F991FFC01E651FF4FC591D491F9
:100C0000FC01E65CFB4FA591B491611109C09FB74F
:100C1000F8948881209582238883EC912E230BC041
:100C2000623061F49FB7F8943881822F80958323D6
:100C30008883EC912E2B2C939FBF06C08FB7F8941E
:100C4000E8812E2B28838FBFDF91CF9108951F92CB
:100C50000F920FB60F9211242F933F938F939F9370
:100C6000AF93BF9380910F0290911002A091110257
:100C7000B091120230910E0226E0230F2D3720F49E
:100C80000296A11DB11D05C029E8230F0396A11DE1
:100C9000B11D20930E0280930F0290931002A09337
:100CA0001102B09312028091130290911402A0914C
:100CB0001502B09116020196A11DB11D8093130279
:100CC00090931402A0931502B0931602BF91AF91B6
:100CD0009F918F913F912F910F900FBE0F901F907A
:100CE00018951F920F920FB60F9211242F933F93D6
:100CF0004F935F936F937F938F939F93AF93BF9324
:100D0000EF93FF930E940604FF91EF91BF91AF9183
:100D10009F918F917F916F915F914F913F912F9113
:100D20000F900FBE0F901F9018951F920F920FB645
:100D30000F9211242F933F934F935F936F937F9361
:100D40008F939F93AF93BF93EF93FF930E940604FB
:100D5000FF91EF91BF91AF919F918F917F916F9193
:100D60005F914F913F912F910F900FBE0F901F9069
:100D700018951F920F920FB60F9211242F933F9345
:100D80004F935F936F937F938F939F93AF93BF9393
:100D9000EF93FF930E940604FF91EF91BF91AF91F3
:100DA0009F918F917F916F915F914F913F912F9183
:100DB0000F900FBE0F901F90189580916402909134
:100DC00065028E529440A1F080914B048E7F8093F7
:100DD0004B048FB7F89410926302109262022EE2D5
:100DE00034E030936502209364028FBF81E0089560
:100DF00080E008952F923F924F925F926F927F9280
:100E00008F929F92AF92BF92CF92DF92EF92FF921A
:100E10000F931F93CF93DF9300D000D0CDB7DEB7F1
:100E20002B013C0120E030E0A9010E942F1887FF30
:100E300005C020E030E040E05FEB04C020E030E09F
:100E400040E05FE3C301B2010E9433136B017C01F8
:100E500020E030E0A901C301B2010E942F1887FFF2
:100E600004C0F7FAF094F7F8F094A12CB12C8DECB3
:100E7000282E9CEC392E8CEC8B839DE39C8320E008
:100E800030E040E251E4B1018B819C810E949518D1
:100E90004B018C01A70196010E942F1818163CF0F7
:100EA000AFEFAA1ABA0A14010B831C83E8CF20E023
:100EB00030E0A901C301B2010E942F1887FF06C0CC
:100EC0008DE28093520201E010E002C000E010E0E9
:100ED000A114B10439F4F801EE5AFD4F80E3808388
:100EE0000F5F1F4F812C912CF401E00FF11FFA834B
:100EF000E9838A149B04B1F191014B815C81C701A4
:100F0000B6010E949F130E9411142B013C016981BC
:100F10007A816E5A7D4F4AE0C2010E94FA17B201EF
:100F2000550C880B990B0E94361891014B815C81FE
:100F30000E9495189B01AC01C701B6010E943213B3
:100F40006B017C0120E030E040E251E4B1018B8193
:100F50009C810E949F131B018B839C83BFEF8B1A84
:100F60009B0AC2CFEE5AFD4F108282E592E00F90AD
:100F70000F900F900F90DF91CF911F910F91FF90E5
:100F8000EF90DF90CF90BF90AF909F908F907F9029
:100F90006F905F904F903F902F900895CF93DF9385
:100FA000E2E4F2E001900020E9F73197E254F240E8
:100FB000C2E4D2E0ABE5B4E080E090E28E1718F432
:100FC00028812C9301C09C938F5F219611968031CC
:100FD000A9F7E2E3F2E001900020E9F73197E2534C
:100FE000F24080E090E020E2DC01A55ABB4F8E1772
:100FF00038F4EC01CE5CDD4F388150963C9302C052
:1010000050962C9301968031910571F7DF91CF9125
:101010000895ABE5B4E020E040E250E15A0F211121
:101020001FC0FC0134913323D9F03C9311960196F3
:101030005A13F5CF80E090E020E030E2DC01A55AC1
:10104000BB4F211110C0FB01E80FF91FE491EE2303
:1010500051F05096EC9301968031910579F70895FF
:101060004C9321E0E3CF50963C9321E0F4CF0097DE
:1010700069F0FC0101900020E9F73197AF01481BAE
:10108000590BBC0186E692E00C94670280E090E088
:101090000895CF93DF930E943708EC0186E491E036
:1010A0000E9437088C0F9D1FDF91CF9108958F927A
:1010B0009F92AF92BF920F931F93CF93DF93CDB7C1
:1010C000DEB7A1970FB6F894DEBF0FBECDBF19A251
:1010D000423008F44AE08E010F5D1F4F842E912CA0
:1010E000A12CB12CA50194010E940A13E62FB9018D
:1010F000CA0101501109EA3014F4E05D01C0E95C55
:10110000D801EC93232B242B252B61F7C8010E94D7
:101110003708A1960FB6F894DEBF0FBECDBFDF91A2
:10112000CF911F910F91BF90AF909F908F90089596
:10113000CF92DF92EF92FF92CF93DF936B017C010E
:10114000E0916602F09167020190F081E02D6DE27E
:1011500086E692E00995EC0166277727CB016C19AA
:101160007D098E099F094AE00E9457088C0F9D1F38
:10117000DF91CF91FF90EF90DF90CF900895CF93C4
:10118000DF93BC01990F880B990B97FF03C00E9456
:10119000980803C04AE00E945708EC0186E491E0F9
:1011A0000E9437088C0F9D1FDF91CF9108952F92D9
:1011B0003F924F925F926F927F928F929F92AF92E7
:1011C000BF92CF92DF92EF92FF920F931F93CF9334
:1011D000DF93CDB7DEB7A0970FB6F894DEBF0FBE92
:1011E000CDBF909175039923C9F02EE72093770323
:1011F00022E92093780323E22093790390937A03E2
:1012000090910201992311F0915003C0109275033F
:1012100096E09093020104E010E002C000E010E0CC
:1012200090917503911197C19EE7909377039FE981
:10123000909378031092790393E190937A0394EA60
:1012400090937B039CEA90937C0397E090937D03BB
:1012500010927E038111E8C080E48093790370903E
:101260007603809003039090040308E010E0612C63
:10127000D62CD70CED2DF0E0E815F9050CF0C7C021
:10128000DF01AA0FBB1FAB5ABC4FAD90BC90A1149D
:10129000B10409F4B8C0D29430EFD322C8018D5FF5
:1012A0009C4F7C01DC01AC58BF4FDC92EB5BFC4FE8
:1012B000C080CC2021F093E09C1590F104C0D501B2
:1012C0006D917C9130C06C2D70E080E090E00E94C8
:1012D00034189B01AC0160E070E080E291E40E9470
:1012E0004C14F50120813181428153810E9495186F
:1012F0001B012C0120E030E0A9010E94471420E0EE
:1013000030E040E05FE387FD05C0C201B1010E940B
:10131000331304C0C201B1010E9432130E941114A0
:10132000F3E0FC15B0F0F701EC58FF4F8D2D816014
:1013300080837F79D12C20E2C29ED02CCC24112432
:101340006C297D2931966083319670830D5F1F4F24
:101350005AC084E0C81211C0F701EC58FF4F8D2D20
:10136000846080833196D5018C918083319611966B
:101370008C9180833196108219C0B5E0CB1219C0D0
:10138000F701EC58FF4F8D2D85608083F501828138
:10139000F701EB58FF4F8083D50111968C9111977F
:1013A0003196808331968C918F7180830C5F1F4FB3
:1013B0002AC0B9E0CB1227C0F701EC58FF4F8D2DA2
:1013C00089608083F5018381F701EB58FF4F8083AB
:1013D000D50112968C9112973196808311968C913B
:1013E0001197319680838C91F801E558FC4F8083EA
:1013F0008C91853421F08E3421F4108202C0B0E249
:10140000B0830B5F1F4F6394E6E06E1231CF86E02E
:10141000870D282F30E0281539051CF480937603BA
:101420007BC01092760378C0E0913102F0E0EE0FBD
:10143000FF1FEB5FFC4F608171817E01F1E1EF0ED8
:10144000F11CC7010E94F317E0913102F0E0EE0FAA
:10145000FF1FEB5DFC4F608171818E010F5F1F4F9D
:10146000C8010E94F3178091310280937F03F70136
:1014700001900020E9F73197EE19FF09EE0FEE0F0A
:10148000EE0FD8010D900020E9F71197A01BB10BCA
:10149000A370EA2BE0938003D7012AE030E0F70144
:1014A00001900020E9F73197AF014E195F09F9016A
:1014B000EC58FF4FBD016E197F096417750738F4AA
:1014C0009D91ED5FFC4F90832F5F3F4FE8CFED5F25
:1014D000FC4FA801201B310BB901640F751FD80107
:1014E0000D900020E9F71197A01BB10B7A01E01ACB
:1014F000F10AEA16FB0628F4DA019D91AD019193F9
:10150000EBCF8B018F5F90E0609103037091040338
:101510000E94F61280933102809179039EEF900F22
:10152000892B8093790322E0E0E0822F90E08017FE
:1015300091075CF4DC01A958BC4F8C91E827F0E0DE
:10154000E65CFC4FE4912F5FF0CFD801A958BC4F67
:10155000EC930F5F1F4FC8018D5F9C4FFC01EC584F
:10156000FF4F2EEF208310932C0400932B04D801FF
:10157000A858BC4FEBE5F4E020E22E0F31913D93EB
:101580002E13FCCFFC01EB56FF4F8FEF80830E5DD7
:101590001F4F00932D0481E0A0960FB6F894DEBF94
:1015A0000FBECDBFDF91CF911F910F91FF90EF90B4
:1015B000DF90CF90BF90AF909F908F907F906F9073
:1015C0005F904F903F902F900895CF92DF92EF92CF
:1015D000FF920F931F93E82FF92F05C001501109B7
:1015E0002109310961F1908196239417B9F305C05F
:1015F000015011092109310911F1908196239413A9
:10160000F7CFC12CD12CE12CF12C0AC08FEFC81AD6
:10161000D80AE80AF80A0C151D052E053F0579F0D1
:1016200080818623841791F36C2D7D2D8E2D9F2D27
:101630001F910F91FF90EF90DF90CF90089560E0A1
:1016400070E080E090E01F910F91FF90EF90DF90AD
:10165000CF900895789484B5826084BD84B581600C
:1016600084BD85B5826085BD85B5816085BD80916D
:101670006E00816080936E001092810080918100E5
:1016800082608093810080918100816080938100DD
:10169000809180008160809380008091B10084609F
:1016A0008093B1008091B00081608093B000809100
:1016B0007A00846080937A0080917A0082608093BF
:1016C0007A0080917A008E7F80937A0080917A00F0
:1016D000806880937A001092C100E0917602F091C8
:1016E000770282E08083E0917202F09173021082AF
:1016F000E0917402F091750287E6808310927E0279
:10170000E0917A02F0917B0286E08083E09178029A
:10171000F0917902808180618083E0917802F0917C
:101720007902808188608083E0917802F09179026B
:10173000808180688083E0917802F09179028081D5
:101740008F7D808362E082E00E94EB0588E491E077
:101750000E94490889E291E00E94370840915904AB
:1017600050915A04609155047091560486E692E0B7
:101770000E94670286E491E00E94370889E491E0C4
:101780000E94490884E791E00E94490888E491E0BA
:101790000E94490886EA91E00E94490888E491E0A5
:1017A0000E94490861E08DE00E94EB0561E08DE058
:1017B0000E949F0561E083E00E94EB0510924A04BD
:1017C0001092490410924804109247041092460463
:1017D0001092450410924404109243041092420463
:1017E0001092410488E091E020E030E0FC01459156
:1017F000559165917491443E55426105710509F01A
:1018000034C04EE0429FC001439F900D1124FC0163
:10181000E45FFE4F259134913093420420934104BC
:10182000FC01E25FFE4F25913491309344042093F4
:101830004304FC01E05FFE4F259134913093460450
:1018400020934504FC01EE5EFE4F259134913093C8
:10185000480420934704FC01EC5EFE4F859194916F
:1018600090934A048093490407C02F5F3F4F0E9620
:101870002F30310509F0BACF80914504909146048C
:10188000892B09F446C090913A049631E0F52091F5
:101890006800983050F031E09E3008F430E081E08C
:1018A00001C0880F3A95EAF701C084E0822B80934B
:1018B0006800983038F09E3040F0963148F4ECE6FD
:1018C000F0E008C0EDE6F0E005C0EBE6F0E002C0B5
:1018D000E0E0F0E04081983030F481E001C0880F12
:1018E0009A95EAF70EC0292F30E09E3018F4285060
:1018F000310902C02E50310981E001C0880F2A95BC
:10190000EAF7842B808380914704909148040E94D9
:10191000FF030E94DD066BEF71E089E092E00E9418
:10192000090887EF91E090930603809305038AED01
:1019300091E0909326038093250380910303909177
:1019400004039C012F5F3F4FF901EE0FFF1FEB5F78
:10195000FC4F4DEE51E051834083FC01EE0FFF1F21
:10196000E95DFC4F49EE51E051834083FC01EE0FED
:10197000FF1FE95AFC4F11821082F901EB5BFC4F0B
:1019800010822E5F3F4FF901EE0FFF1FED5FFC4FFE
:1019900040EE51E051834083FC01EE0FFF1FE75DF5
:1019A000FC4F4CED51E051834083FC01EE0FFF1FD3
:1019B000E75AFC4F11821082FC01E95BFC4F108258
:1019C00030930403209303038DE192E09093580336
:1019D0008093570384E0809346032BE132E03093F9
:1019E0005A03209359038093470381E00E94D7084C
:1019F0000E941B050E945E032B013C0124E1C22EC4
:101A0000D12CE12CF12C0E945E03DC01CB01841966
:101A10009509A609B709883E9340A105B10558F07C
:101A200021E0C21AD108E108F10888EE480E83E0EF
:101A3000581E611C711CC114D104E104F10419F792
:101A4000809131028111D1CF60E08DE00E949F052D
:101A50008091530490915404009719F08F3F9105A1
:101A600031F481E090E0909354048093530480918A
:101A7000510490915204009719F08F3F910531F471
:101A800081E090E0909352048093510480914F0440
:101A900090915004009719F08F3F910531F481E047
:101AA00090E09093500480934F0480914D04909166
:101AB0004E048F3F910521F410924E0410924D0474
:101AC0008DEA91E00E94370880915304909154046C
:101AD0000E94BF0887EB91E00E9437086091510493
:101AE00070915204072E000C880B990B97FF03C0CE
:101AF0000E94980803C04AE00E94570884EC91E0D5
:101B00000E94370880914F04909150040E94BF08B2
:101B100080914D0490914E04892B21F486EC91E044
:101B20000E94490880914D0490914E04019721F440
:101B300087ED91E00E94490803E610E0CEEFD0E087
:101B400080E4C82E82E4D82E8FE0E82EF12C9CE3AE
:101B5000B92E0E9483030E941B050E9483032B0160
:101B60003C0160E083E00E94EB0562E084E00E94BB
:101B7000EB050E94DD068EE294E00E94B5038EE242
:101B800094E00E94C403892B61F40E948303DC016A
:101B9000CB0184199509A609B7090697A105B105D6
:101BA00070F38EE294E00E94C403181619060CF03C
:101BB00095C18EE294E00E94DB03209100013091F8
:101BC00001012817390709F489C190930101809315
:101BD00000018039910509F4EAC064F420912902DA
:101BE00030912A028036910509F449C18037910568
:101BF000C1F174C1803D910509F44BC0803E91054F
:101C000029F0803B910509F069C189C080912F02BC
:101C100090913002892B81F40E94830360932B0200
:101C200070932C0280932D0290932E0281E090E01D
:101C30009093300280932F028091290290912A0282
:101C40008830910509F44AC1019690932A02809345
:101C50002902079709F042C110922A021092290224
:101C60003DC12830310509F439C12336310539F435
:101C700081E090E090932A02809329022FC12150A5
:101C8000310930932A02209329022930310524F7A3
:101C900025C18091290290912A02029791F48091A6
:101CA0004D0490914E04892B31F481E090E09093A3
:101CB0004E0480934D0482E090E090932A0280933A
:101CC00029022091290230912A022330310549F45A
:101CD00080915304909154040196909354048093FE
:101CE00053042091290230912A022430310549F40D
:101CF00080915104909152040196909352048093E4
:101D000051042091290230912A022530310509F031
:101D1000E5C080914F0490915004019643C080919A
:101D2000290290912A02029781F480914D049091AA
:101D30004E04019721F410924E0410924D0482E05B
:101D400090E090932A0280932902209129023091F9
:101D50002A022330310549F48091530490915404B0
:101D60000197909354048093530420912902309159
:101D70002A022430310549F4809151049091520493
:101D80000A96909352048093510420912902309135
:101D90002A022530310509F0A1C080914F049091AD
:101DA00050040A969093500480934F0497C020915A
:101DB000290230912A022430310549F480915104DE
:101DC00090915204C29690935204809351042091B2
:101DD000290230912A022530310549F480914F04BF
:101DE00090915004C2969093500480934F04809138
:101DF000290290912A02069709F070C0809153043D
:101E0000909154048F3F910529F024F0D09354040D
:101E1000C093530480915104909152048F3F9105D7
:101E200029F024F0D0935204C093510480914F04C0
:101E3000909150048F3F910529F024F0D0935004E5
:101E4000C0934F046091530480E090E00E945B19BE
:101E50006091510481E090E00E945B1960914F0411
:101E600082E090E00E945B1960914D0483E090E075
:101E70000E945B1910932A02009329022FC022307E
:101E8000310541F410924E0410924D0430932A0211
:101E9000209329028091290290912A02039731F41C
:101EA00021E030E0309354042093530480912902C0
:101EB00090912A02049731F421E030E030935204EB
:101EC000209351048091290290912A02059731F4C0
:101ED00021E030E03093500420934F048091290298
:101EE00090912A028830910509F443C1109228028A
:101EF000109227028330910509F4B3C06CF481304D
:101F0000910529F10CF08EC0892B09F03FC16CE1DD
:101F100073E08AE293E031C18530910509F4FBC09A
:101F20000CF4D8C08630910509F416C183369105AA
:101F300009F02CC1109242021092320269E272E062
:101F400082E492E00E94E81769E172E019C1109200
:101F50004202109232021092520260915304709128
:101F60005404072E000C880B990B0E9436180E940F
:101F7000FA0662E572E082E492E00E94D61761E11F
:101F800073E082E492E00E94E81780914D04909102
:101F90004E04892B31F46BE073E082E492E00E94FE
:101FA000E81780914D0490914E04019731F466E05A
:101FB00073E082E492E00E94E8176EEF72E082E341
:101FC00092E00E94E81710925202609151047091C1
:101FD0005204072E000C880B990B0E9436180E94A1
:101FE000FA0662E572E082E392E00E94D6176CEF97
:101FF00072E082E392E00E94E81710925202609130
:102000004F0470915004072E000C880B990B0E940E
:1020100036180E94FA0662E572E082E392E00E94BE
:10202000D617B2C0109242021092320280914D0433
:1020300090914E04892B31F46CEE72E082E492E0D0
:102040000E94E81780914D0490914E04019731F45D
:102050006DED72E082E492E00E94E8176DEC72E0B0
:102060008FC010924202109232021092520260917E
:10207000530470915404072E000C880B990B0E9496
:1020800036180E94FA0662E572E082E492E00E944D
:10209000D61762EC72E082E492E00E94E817809129
:1020A0004D0490914E04892B31F46CEB72E082E484
:1020B00092E00E94E81780914D0490914E040197A0
:1020C00031F467EB72E082E492E00E94E81767EA7D
:1020D00072E056C010924202109232026AE972E037
:1020E00082E492E00E94E81710925202609151043B
:1020F00070915204072E000C880B990B0E94361821
:102100000E94FA0662E572E082E492E00E94D6172D
:102110006AE872E035C010924202109232026EE715
:1021200072E082E492E00E94E817109252026091FD
:102130004F0470915004072E000C880B990B0E94DD
:1021400036180E94FA0662E572E082E492E00E948C
:10215000D6176EE672E014C010924202109232025C
:102160006EE572E082E492E00E94E81766E572E0B4
:1021700007C068E372E086E492E00E94090806C0A6
:1021800082E392E00E94E8170E94CE078091250228
:10219000909126020196909326028093250205973E
:1021A00044F081E00E94D708109226021092250286
:1021B00003C080E00E94D7080E94830361E084E0AE
:1021C0000E94EB0580912F0290913002892B09F03B
:1021D0007CC061E082E00E945D042B013C0160E074
:1021E00082E00E945D049B01AC01240D351D461D5B
:1021F000571D2093210230932202409323025093D3
:102200002402C701B6010E940A13309320022093D2
:102210001F022F3F8FEF380749F410921E021092D1
:102220001D0210921C0210921B024FC080914D049F
:1022300090914E04009711F5B29EC001B39E900D8F
:10224000112460915304709154040E94F6129B0172
:1022500070931E0260931D0280914F049091500470
:1022600060915104709152040E94F612C9010E94BB
:10227000E21270931C0260931B0227C0019729F59C
:10228000B29EC001B39E900D1124609153047091D1
:1022900054040E94F6129B0170931C0260931B026F
:1022A00080914F04909150046091510470915204B8
:1022B0000E94F612269FC001279F900D369F900D19
:1022C000112490931E0280931D0240902B02509087
:1022D0002C0260902D0270902E0241145104610472
:1022E0007104C9F00E948303DC01CB0180529C463B
:1022F000AB4FBF4F8093170290931802A09319021F
:10230000B0931A0284159505A605B70524F410921A
:10231000300210922F020E9454031BCC8DE191E0F9
:1023200090932F0480932E0420913A04263140F597
:10233000283028F02E3030F0ECE6F0E005C0EDE675
:10234000F0E002C0EBE6F0E03081283038F481E0C4
:1023500090E001C0880F2A95EAF70FC0422F50E0A5
:102360002E3018F44850510902C04E50510981E0F6
:1023700090E001C0880F4A95EAF780958323808317
:1023800080915504909156040C946616109269023F
:102390001092680288EE93E0A0E0B0E080936A02B9
:1023A00090936B02A0936C02B0936D028DE091E06C
:1023B000909367028093660285EC90E0909373029D
:1023C0008093720284EC90E0909375028093740283
:1023D00080EC90E0909377028093760281EC90E01D
:1023E000909379028093780282EC90E090937B0244
:1023F00080937A0286EC90E090937D0280937C0239
:1024000010927F021092800210928102109282023A
:1024100010925604109255041092580410925704CA
:1024200010925A041092590466E070E080E090E047
:102430000E94FE160097A1F09093560480935504D5
:1024400025E030E03093580420935704209159043C
:1024500030915A04232B09F0AAC0FC011082A7C0B6
:102460008091550490915604009711F00E946616D1
:10247000109256041092550410925A041092590466
:10248000109258041092570480E090E00E94531973
:1024900090E0909354048093530481E090E00E9474
:1024A000531990E0909352048093510482E090E09D
:1024B0000E94531990E09093500480934F0483E05E
:1024C00090E00E94531990E090934E0480934D0445
:1024D000109231041092300488EE93E0A0E0B0E056
:1024E0008093320490933304A0933404B093350462
:1024F0008DE191E090932F0480932E04109242047A
:102500001092410410924404109243041092460425
:1025100010924504109248041092470410924A0405
:102520001092490480914B048E7F80934B0461E0AC
:1025300084E00E94EB0561E084E00E949F05E6E6EE
:10254000F4E0E491E0933E04E2E5F4E0E491F0E0AD
:10255000EE0FFF1FE65CFB4F859194919093400432
:1025600080933F0462E083E00E94EB0583E0809368
:102570003A04E5E6F4E0E491E0933B04E1E5F4E0BD
:10258000E491F0E0EE0FFF1FEC5BFB4F859194911F
:1025900090933D0480933C041092750310920403C1
:1025A0001092030310922D0410927603089525E0F3
:1025B00030E030935A042093590467EE71E00E9492
:1025C000E11762CFAA1BBB1B51E107C0AA1FBB1FAB
:1025D000A617B70710F0A61BB70B881F991F5A95AF
:1025E000A9F780959095BC01CD01089597FB072E22
:1025F00016F4009407D077FD09D00E94E21207FC80
:1026000005D03EF4909581959F4F08957095619502
:102610007F4F0895A1E21A2EAA1BBB1BFD010DC01E
:10262000AA1FBB1FEE1FFF1FA217B307E407F50782
:1026300020F0A21BB30BE40BF50B661F771F881F5E
:10264000991F1A9469F760957095809590959B01F4
:10265000AC01BD01CF010895EE0FFF1F0590F4916D
:10266000E02D09945058BB27AA270E944A130C94C6
:1026700019190E940B1938F00E94121920F039F430
:102680009F3F19F426F40C9408190EF4E095E7FB2B
:102690000C940219E92F0E942A1958F3BA176207FD
:1026A00073078407950720F079F4A6F50C944C196C
:1026B0000EF4E0950B2EBA2FA02D0B01B90190015D
:1026C0000C01CA01A0011124FF27591B99F0593FA1
:1026D00050F4503E68F11A16F040A22F232F342FE9
:1026E0004427585FF3CF469537952795A795F04037
:1026F0005395C9F77EF41F16BA0B620B730B840B4C
:10270000BAF09150A1F0FF0FBB1F661F771F881F03
:10271000C2F70EC0BA0F621F731F841F48F487955B
:1027200077956795B795F7959E3F08F0B0CF93954D
:10273000880F08F09927EE0F9795879508950E94C6
:10274000B3130C9419190E94121958F00E940B1916
:1027500040F029F45F3F29F00C94021951110C94B8
:102760004D190C9408190E942A1968F39923B1F3A2
:10277000552391F3951B550BBB27AA2762177307A7
:10278000840738F09F5F5F4F220F331F441FAA1F3B
:10279000A9F335D00E2E3AF0E0E832D091505040F7
:1027A000E695001CCAF72BD0FE2F29D0660F771FA5
:1027B000881FBB1F261737074807AB07B0E809F08B
:1027C000BB0B802DBF01FF2793585F4F3AF09E3F10
:1027D000510578F00C9402190C944D195F3FE4F305
:1027E000983ED4F3869577956795B795F7959F5F53
:1027F000C9F7880F911D9695879597F90895E1E09F
:10280000660F771F881FBB1F621773078407BA07FD
:1028100020F0621B730B840BBA0BEE1F88F7E09558
:1028200008950E9418146894B1110C944D190895DC
:102830000E94321988F09F5798F0B92F9927B75105
:10284000B0F0E1F0660F771F881F991F1AF0BA9554
:10285000C9F714C0B13091F00E944C19B1E008954D
:102860000C944C19672F782F8827B85F39F0B93F3F
:10287000CCF3869577956795B395D9F73EF4909507
:102880008095709561957F4F8F4F9F4F08950E945F
:10289000711808F48FEF0895FA01EE0FFF1F3096BC
:1028A00021053105A1F16115710561F48038BFE39F
:1028B0009B0749F168949038810561F08038BFEF3B
:1028C0009B0741F099234AF5FF3FE10531052105BA
:1028D00019F1E8940894E795D901AA2329F4AB2FBC
:1028E000BE2FF85FD0F310C0FF5F70F4A695E0F73D
:1028F000F73950F019F0FF3A38F49F779F930DD0D5
:102900000F9007FC9058089546F00C94081960E069
:1029100070E080E89FE308954FE79F775F934F93C0
:102920003F932F930E9447152F913F914F915F91B5
:102930000E9495180C94A41429F416F00C94021912
:102940000C944C190C9408190E943219A8F396386B
:10295000A0F707F80F92E8942BE33AEA48EB5FE719
:102960000E94AB180F920F920F924DB75EB70F9265
:102970000E948F15E8E6F0E00E94D6144F915F9117
:10298000EF91FF91E595EE1FFF1F49F0FE57E068BC
:102990004427EE0F441FFA95E1F74195550B0E942D
:1029A00009150F9007FE0C94FD140895DF93CF9343
:1029B0001F930F93FF92EF92DF927B018C0168943B
:1029C00006C0DA2EEF010E94A818FE01E894A59136
:1029D0002591359145915591A6F3EF010E944A1337
:1029E000FE019701A801DA9469F7DF90EF90FF905C
:1029F0000F911F91CF91DF9108959B01AC0160E091
:102A000070E080E89FE30C949F130C9402190C94DF
:102A1000C3150E943219D8F39923C9F3940F511D9D
:102A2000A3F39150504094F059F0882332F0660F90
:102A3000771F881F91505040C1F79E3F51052CF7DA
:102A4000880F911D9695879597F908955F3FACF093
:102A5000983E9CF0BB27869577956795B79508F4C7
:102A6000B1609395C1F7BB0F58F711F460FFE8CF41
:102A70006F5F7F4F8F4F9F4FE3CF0C944D1916F030
:102A80000C94C3150C94081968940C9402190E94B4
:102A90003219A8F39923C1F3AEF3DF93CF931F93B9
:102AA0000F93FF92C92FDD2788232AF02197660F05
:102AB000771F881FDAF720E030E040E85FEB9FE304
:102AC000883920F0803E38F021968F770E943313AA
:102AD000E0E9F0E004C00E943313EDEBF0E00E9467
:102AE000D6148B01BE01EC01FB2E6F577109759551
:102AF000771F880B990B0E94361828E132E741E3D3
:102B00005FE30E94A818AF2D9801AE01FF900F91CE
:102B10001F91CF91DF910E944A130C941919FA0169
:102B2000DC01AA0FBB1F9B01AC01BF5728F4222771
:102B300033274427507820C0B75190F4AB2F00249E
:102B4000469537952795011CA395D2F3002071F087
:102B5000220F331F441FB395DAF30ED00C943213B7
:102B600061307105A0E88A07B94630F49B01AC01D9
:102B70006627772788279078309621F02083318345
:102B80004283538308959F3F31F0915020F48795FD
:102B900077956795B795880F911D9695879597F9C5
:102BA0000895CF93DF938230910510F482E090E096
:102BB000E0917D04F0917E0420E030E0C0E0D0E0C0
:102BC000309711F14081518148175907C0F04817DB
:102BD000590761F482819381209719F09B838A833E
:102BE0002BC090937E0480937D0426C0211531056F
:102BF00019F04217530718F49A01BE01DF01EF01E3
:102C00000280F381E02DDCCF2115310509F1281B6D
:102C1000390B2430310590F412968D919C911397C5
:102C20006115710521F0FB019383828304C09093A9
:102C30007E0480937D04FD01329644C0FD01E20FC5
:102C4000F31F81939193225031092D933C933AC005
:102C500020917B0430917C04232B41F420910501C9
:102C60003091060130937C0420937B042091030172
:102C7000309104012115310541F42DB73EB7409143
:102C8000070150910801241B350BE0917B04F09162
:102C90007C04E217F307A0F42E1B3F0B281739071B
:102CA00078F0AC014E5F5F4F2417350748F04E0FA8
:102CB0005F1F50937C0440937B048193919302C0E7
:102CC000E0E0F0E0CF01DF91CF9108950F931F93E3
:102CD000CF93DF93009709F48CC0FC0132971382E5
:102CE000128200917D0410917E040115110581F47A
:102CF00020813181820F931F20917B0430917C04CD
:102D00002817390779F5F0937C04E0937B0471C0B0
:102D1000D80140E050E0AE17BF0750F412962D9155
:102D20003C911397AD012115310509F1D901F3CF7C
:102D30009D01DA013383228360817181860F971FA1
:102D40008217930769F4EC0128813981260F371F18
:102D50002E5F3F4F318320838A819B8193838283BF
:102D6000452B29F4F0937E04E0937D0442C0139632
:102D7000FC93EE931297ED01499159919E01240F16
:102D8000351FE217F30771F480819181840F951F3D
:102D9000029611969C938E938281938113969C93B5
:102DA0008E931297E0E0F0E0D80112968D919C91FD
:102DB0001397009719F0F8018C01F6CF8D919C9133
:102DC00098012E5F3F4F820F931F20917B0430911B
:102DD0007C042817390769F4309729F410927E048F
:102DE00010927D0402C01382128210937C0400931F
:102DF0007B04DF91CF911F910F910895A0E0B0E087
:102E0000E4E0F7E10C946D19EC01009721F4CB019B
:102E10000E94D115B8C0FC01E60FF71F9C0122509B
:102E20003109E217F30708F4ACC0D9010D911C91E8
:102E3000119706171707B0F00530110508F49FC069
:102E4000C80104978617970708F499C00250110922
:102E5000061B170B019311936D937C93CF010E9476
:102E600066168DC05B01A01AB10A4C01800E911E3E
:102E7000A0917D04B0917E0440E050E0E12CF12C63
:102E8000109709F44AC0A815B905D1F56D907C904A
:102E90001197630182E0C80ED11CCA14DB0480F1D3
:102EA000A3014A195B096A0182E0C80ED11C12967F
:102EB000BC9012971396AC91B5E0CB16D10440F0BC
:102EC000B282A38351834083D9016D937C930AC05E
:102ED0000E5F1F4FC301800F911FF9019183808303
:102EE000EB2DFA2FE114F10431F0D7011396FC9386
:102EF000EE93129744C0F0937E04E0937D043FC0AC
:102F00008D919C9111974817590708F4AC017D01E8
:102F100012960D90BC91A02DB3CF80917B0490911F
:102F20007C0488159905E1F446175707C8F4809189
:102F3000030190910401009741F48DB79EB7409131
:102F4000070150910801841B950BE817F907C8F495
:102F5000F0937C04E0937B04F901718360830FC0DC
:102F6000CB010E94D1157C01009759F0A801BE0148
:102F70000E94CD17CE010E946616C70104C0CE0183
:102F800002C080E090E0CDB7DEB7EEE00C94891986
:102F900081E090E0F8940C94A019FB01DC0102C0E0
:102FA00001900D9241505040D8F70895FB01DC018B
:102FB0000D900020E9F7119701900D920020E1F7A4
:102FC0000895FB01DC0101900D920020E1F70895C6
:102FD000FB01DC010D900020E9F7119705900D929F
:102FE0000020E1F70895FB01DC0105900D9200201F
:102FF000E1F70895BB274A3031F4992322F4BDE26A
:10300000909581959F4F0C940618BB27FB0155277F
:10301000AA27880F991FAA1FA41710F0A41B839535
:103020005051B9F7A05DAA3308F0A95DA1930097AC
:1030300079F7B111B1931192CB010C941F18DC01F7
:10304000FC01672F71917723E1F7329704C07C91DF
:103050006D9370836291AE17BF07C8F308950E9405
:10306000711808F481E00895E89409C097FB3EF4D4
:1030700090958095709561957F4F8F4F9F4F9923C5
:10308000A9F0F92F96E9BB279395F6958795779543
:103090006795B795F111F8CFFAF4BB0F11F460FF03
:1030A0001BC06F5F7F4F8F4F9F4F16C0882311F05B
:1030B00096E911C0772321F09EE8872F762F05C06F
:1030C000662371F096E8862F70E060E02AF09A950A
:1030D000660F771F881FDAF7880F9695879597F9FF
:1030E0000895990F0008550FAA0BE0E8FEEF161699
:1030F0001706E807F907C0F012161306E407F507EC
:1031000098F0621B730B840B950B39F40A2661F05F
:10311000232B242B252B21F408950A2609F4A14002
:10312000A6958FEF811D811D08950E94A8180C940B
:1031300019190E940B1938F00E94121920F09523DA
:1031400011F00C9402190C94081911240C944D19C7
:103150000E942A1970F3959FC1F3950F50E0551FF7
:10316000629FF001729FBB27F00DB11D639FAA27DC
:10317000F00DB11DAA1F649F6627B00DA11D661F2B
:10318000829F2227B00DA11D621F739FB00DA11D4C
:10319000621F839FA00D611D221F749F3327A00D06
:1031A000611D231F849F600D211D822F762F6A2FA2
:1031B00011249F5750409AF0F1F088234AF0EE0F07
:1031C000FF1FBB1F661F771F881F91505040A9F734
:1031D0009E3F510580F00C9402190C944D195F3FED
:1031E000E4F3983ED4F3869577956795B795F79570
:1031F000E7959F5FC1F7FE2B880F911D96958795E8
:1032000097F9089597F99F6780E870E060E0089566
:103210009FEF80EC089500240A94161617061806EE
:103220000906089500240A941216130614060506CA
:103230000895092E0394000C11F4882352F0BB0F5B
:1032400040F4BF2B11F460FF04C06F5F7F4F8F4FBE
:103250009F4F089557FD9058440F551F59F05F3FF9
:1032600071F04795880F97FB991F61F09F3F79F0A8
:1032700087950895121613061406551FF2CF46952A
:10328000F1DF08C0161617061806991FF1CF8695AC
:103290007105610508940895E894BB276627772790
:1032A000CB0197F90895F999FECF92BD81BDF89AA7
:1032B000992780B50895262FF999FECF1FBA92BDA0
:1032C00081BD20BD0FB6F894FA9AF99A0FBE019607
:1032D00008952F923F924F925F926F927F928F92BA
:1032E0009F92AF92BF92CF92DF92EF92FF920F9395
:1032F0001F93CF93DF93CDB7DEB7CA1BDB0B0FB69F
:10330000F894DEBF0FBECDBF09942A88398848885B
:103310005F846E847D848C849B84AA84B984C884F1
:10332000DF80EE80FD800C811B81AA81B981CE0FE8
:10333000D11D0FB6F894DEBF0FBECDBFED010895CD
:1033400012E0CCE3D2E004C0FE010E942C132196CF
:0A335000CD33D107C9F7F894FFCF81
:10335A00F0000600007F04800000000000EB026716
:10336A0002B4029202A6023203000000009C046723
:10337A0002C403DB039B03B50352432D54686F75E4
:10338A00676874732048616C6C2052504D2D5365E8
:10339A006E736F7220000D0A0064657369676E2090
:1033AA006279205465726F2053616C6D696E656E27
:1033BA0020402052432D54686F7567687473203219
:1033CA00303137004672656520616E64206F706522
:1033DA006E2D736F75726365202D2052656C656161
:1033EA0073656420756E646572204D49542D6C694D
:1033FA0063656E736500526561647921004D61678A
:10340A006E6574733A20004765617220726174694F
:10341A006F3A20003A0053656E736F72206F6E2008
:10342A006D6F746F722E0053656E736F72206F6EBC
:0E343A00206D61696E2E00762E312E3100005D
:00000001FF
