:100000000C94A3010C94CB010C94CB010C94AB0881
:100010000C9487080C9463080C94CB010C94CB01CE
:100020000C94CB010C94CB010C94CB010C94CB0120
:100030000C94CB010C94CB010C94CB010C94CB0110
:100040000C9419080C94CB010C94E7070C94C1078D
:100050000C94CB010C94CB010C94CB010C94CB01F0
:100060000C94CB010C94CB0107634236B79BD8A705
:100070001A39685618AEBAAB558C1D3CB7CC5763CD
:10008000BD6DEDFD753EF6177231BF000000803F7B
:1000900008000000BE922449123EABAAAA2ABECD97
:1000A000CCCC4C3E00000080BEABAAAAAA3E000009
:1000B0000000BF000000803F000000000008417801
:1000C000D3BB4387D1133D190E3CC3BD4282AD2B38
:1000D0003E68EC8276BED98FE1A93E4C80EFFFBE30
:1000E00001C4FF7F3F00000000000000000024006A
:1000F00027002A0000000008000201000003040796
:10010000000000000000000000C201000100050026
:1001100005000300030000E1000001000F000F00D4
:100120000D000D0000960000020019001A001700D3
:100130001700127A00000700200021001D001D009A
:10014000807000000B002300230020002000004BE3
:10015000000014003700370034003400403800003D
:100160001E004B004B0048004800482600003100AC
:10017000710071006F006F00E42500003100710014
:1001800071006F006F008025000032007200720065
:1001900070007000C01200006E00E900E900E60087
:1001A000E60060090000E500D801D801D501D501BD
:1001B000B0040000D301B403B403B103B103580287
:1001C0000000B40367076707620762072C0100009D
:1001D0006707DD0EDD0EDA0EDA0E200072706D009C
:1001E00052504D005243540020202052504D2D5368
:1001F000656E736F720020524354204A6574692003
:10020000546F6F6C730000070E091C1B1215383FEA
:10021000363124232A2D70777E796C6B6265484FC6
:10022000464154535A5DE0E7EEE9FCFBF2F5D8DFB6
:10023000D6D1C4C3CACD90979E998C8B8285A8AF26
:10024000A6A1B4B3BABDC7C0C9CEDBDCD5D2FFF816
:10025000F1F6E3E4EDEAB7B0B9BEABACA5A28F8886
:10026000818693949D9A2720292E3B3C35321F1876
:10027000111603040D0A5750595E4B4C45426F68E6
:10028000616673747D7A898E878095929B9CB1B6E6
:10029000BFB8ADAAA3A4F9FEF7F0E5E2EBECC1C646
:1002A000CFC8DDDAD3D4696E676075727B7C515636
:1002B0005F584D4A4344191E171005020B0C2126A6
:1002C0002F283D3A33344E49404752555C5B767196
:1002D000787F6A6D64633E39303722252C2B060106
:1002E000080F1A1D1413AEA9A0A7B2B5BCBB9691F6
:1002F000989F8A8D8483DED9D0D7C2C5CCCBE6E166
:10030000E8EFFAFDF4F300000000250028002B00C0
:100310000000000023002600290004040404040453
:1003200004040202020202020303030303030102A4
:100330000408102040800102040810200102040873
:1003400010201409D90C11241FBECFEFD8E0DEBF56
:10035000CDBF11E0A0E0B1E0ECEEF6E202C0059006
:100360000D92A03CB107D9F724E0A0ECB1E001C0A8
:100370001D92A930B207E1F711E0C2EAD1E004C052
:100380002197FE010E945B0DC13AD107C9F70E9477
:100390000C0A0C9469130C94000080911602909141
:1003A0001702805E9340A1F08091FD038E7F8093C1
:1003B000FD038FB7F894109215021092140220EEEC
:1003C00033E030931702209316028FBF81E0089527
:1003D00080E00895CF92DF92EF92FF920F931F93E8
:1003E000CF93DF936C017A018B01C0E0D0E0CE1592
:1003F000DF0589F0D8016D918D01D601ED91FC9159
:100400000190F081E02DC6010995892B11F47E0140
:1004100002C02196ECCFC701DF91CF911F910F91C0
:10042000FF90EF90DF90CF900895FC01918D828D29
:10043000981761F0828DDF01A80FB11D5D968C9138
:10044000928D9F5F9F73928F90E008958FEF9FEF43
:100450000895FC01918D828D981731F0828DE80FFF
:10046000F11D858D90E008958FEF9FEF0895FC01B9
:10047000918D228D892F90E0805C9F4F821B910986
:100480008F739927089588E192E00E94370221E056
:10049000892B09F420E0822F0895FC01848DDF016F
:1004A000A80FB11DA35ABF4F2C91848D90E00196E7
:1004B0008F739927848FA689B7892C93A089B189D6
:1004C0008C9180648C93938D848D981306C00288E0
:1004D000F389E02D80818F7D80830895EF92FF92D4
:1004E0000F931F93CF93DF93EC0181E0888F9B8D57
:1004F0008C8D981305C0E889F989808185FD24C019
:10050000F62E0B8D10E00F5F1F4F0F731127E02E9B
:100510008C8DE8120CC00FB607FCFACFE889F98978
:10052000808185FFF5CFCE010E944D02F1CF8B8DEA
:10053000FE01E80FF11DE35AFF4FF0820B8FEA89AD
:10054000FB898081806207C0EE89FF896083E8892A
:10055000F98980818064808381E090E0DF91CF9190
:100560001F910F91FF90EF900895CF93DF93EC01CF
:10057000888D8823C9F0EA89FB89808185FD05C0C3
:10058000A889B9898C9186FD0FC00FB607FCF5CFFD
:10059000808185FFF2CFA889B9898C9185FFEDCF45
:1005A000CE010E944D02E7CFDF91CF91089580E008
:1005B00090E0892B29F00E94430281110C940000E5
:1005C000089590E0FC01EC50FF4F3491FC01E25D96
:1005D000FC4F2491FC01E65EFC4FE491EE2309F40C
:1005E0003BC0332339F1333091F038F43130A9F086
:1005F000323001F584B58F7D12C0373091F038303C
:10060000A1F03430B9F4809180008F7D03C08091D7
:1006100080008F77809380000DC084B58F7784BD74
:1006200009C08091B0008F7703C08091B0008F7DAA
:100630008093B000F0E0EE0FFF1FEA5FFC4FA59142
:10064000B4918FB7F894EC91611103C020952E23DB
:1006500001C02E2B2C938FBF0895CF93DF9390E092
:10066000FC01E25DFC4F2491FC01E65EFC4F8491AD
:10067000882361F190E0880F991FFC01E651FF4F3C
:10068000C591D491FC01EA5FFC4FA591B491611131
:1006900009C09FB7F8948881209582238883EC91C4
:1006A0002E230BC0623061F49FB7F8943881822FFB
:1006B000809583238883EC912E2B2C939FBF06C0BB
:1006C0008FB7F894E8812E2B28838FBFDF91CF91CD
:1006D00008953FB7F8948091E5019091E601A091CB
:1006E000E701B091E80126B5A89B05C02F3F19F09E
:1006F0000196A11DB11D3FBFBA2FA92F982F8827A2
:10070000820F911DA11DB11DBC01CD0143E0660FFB
:10071000771F881F991F4A95D1F708952FB7F8942E
:100720006091E1017091E2018091E3019091E40117
:100730002FBF0895DC015196ED91FC915297908165
:1007400050968C918095892380830895209116027C
:10075000309117022817390781F490911402809183
:100760001502981751F0E0911402F0E0E054FE4FAA
:100770008081082E000C990B08958FEF9FEF08954C
:1007800020911602309117022817390739F48FB7D4
:10079000F89410921502109214028FBF08952091C0
:1007A0001602309117022817390769F48091150253
:1007B0002091140290E08096821B910960E270E023
:1007C0000E94110D08958FEF9FEF0895209116025A
:1007D0003091170228173907B9F4909114028091CB
:1007E00015029817A1F0E0911402F0E0E054FE4FDA
:1007F00080812091140230E02F5F3F4F2F7133270B
:100800002093140290E008958FEF9FEF08958EEFEC
:100810009FEF089520E001972FEF8F3F9207D9F7C0
:100820000895EF92FF920F931F93CF93DF93C091A0
:100830001602D0911702209709F443C08B899C8936
:100840000E940A0488E0E82EF12C10E001E08D8976
:100850009E890E940A04EE85FF8590818D858923FB
:1008600011F0102B03C0802F80951823000F81E01A
:10087000E81AF10861F78D899E890E940A048F8920
:10088000988D0E940A04809115022091140290E034
:1008900001968F71992730E08217930779F0E091E4
:1008A0001502F0E0E054FE4F10838091150290E0B5
:1008B00001968F7199278093150203C08D8D8160F9
:1008C0008D8FDF91CF911F910F91FF90EF90089541
:1008D000CF92DF92EF92FF920F931F93CF93DF930C
:1008E000EC01898D9A8D009729F421E030E03B835B
:1008F0002A8364C0FFB6F89428E030E090E081E0FD
:10090000482F462309F09F5F880F21503109C1F716
:100910008E8D81119F5FE62E192F1095CE010E94BA
:100920009A03898D9A8D04960E940A0488E0C82E45
:10093000D12C01E0802F8E2139F0E989FA8990814C
:100940008889892B808303C0CE010E949A03898DF8
:100950009A8D0E940A04000F81E0C81AD10851F74D
:100960008E8D882339F0E989FA8990818889892BCD
:10097000808303C0CE010E949A03898D9A8D0E94C4
:100980000A0410FF07C0E989FA8990818889892BB8
:10099000808303C0CE010E949A03898D9A8D0E94A4
:1009A0000A04E989FA8990818889892B8083FFBEAE
:1009B0008B8D9C8D0E940A0481E090E0DF91CF91A5
:1009C0001F910F91FF90EF90DF90CF900895CF93FC
:1009D000DF93C0E0D0E08091DF0390E0C817D90733
:1009E000ECF4209761F00197C817D90741F081E036
:1009F0002091DD033091DE03C217D30709F480E0B4
:100A0000FE01E75DFC4F60818093FE0380EE93E082
:100A10000E9468041092FE032196DDCFDF91CF91F2
:100A20000895009769F0FC0101900020E9F73197E3
:100A3000AF01481B590BBC0188E192E00C94EA011C
:100A400080E090E00895CF93DF930E941105EC01C0
:100A500089E291E00E9411058C0F9D1FDF91CF91DB
:100A600008958F929F92AF92BF920F931F93CF934F
:100A7000DF93CDB7DEB7A1970FB6F894DEBF0FBEF8
:100A8000CDBF19A2423008F44AE08E010F5D1F4F1E
:100A9000842E912CA12CB12CA50194010E94250D2E
:100AA000E62FB901CA0101501109EA3014F4E05DE2
:100AB00001C0E95CD801EC93232B242B252B61F793
:100AC000C8010E941105A1960FB6F894DEBF0FBEB3
:100AD000CDBFDF91CF911F910F91BF90AF909F90AD
:100AE0008F9008952F923F924F925F926F927F92D4
:100AF0008F929F92AF92BF92CF92DF92EF92FF922E
:100B00000F931F93CF93DF93CDB7DEB7A0970FB6A8
:100B1000F894DEBF0FBECDBF909127039923C9F093
:100B20002EE72093290322E920932A0323E220932E
:100B30002B0390932C0390910201992311F0915073
:100B400003C01092270396E09093020104E010E0A6
:100B500002C000E010E090912703911197C19EE739
:100B6000909329039FE990932A0310922B0393E01B
:100B700090932C0394EA90932D039CEA90932E0378
:100B800097E090932F03109230038111E8C080E426
:100B900080932B03709028038090B5029090B6024A
:100BA00008E010E0612CD62CD70CED2DF0E0E81514
:100BB000F9050CF0C7C0DF01AA0FBB1FA95FBC4F2E
:100BC000AD90BC90A114B10409F4B8C0D29430EF38
:100BD000D322C8018B549D4F7C01DC01AC58BF4F20
:100BE000DC92E950FD4FC080CC2021F093E09C15B1
:100BF00090F104C0D5016D917C9130C06C2D70E0F6
:100C000080E090E00E9413129B01AC0160E070E074
:100C100080E291E40E94090EF50120813181428138
:100C200053810E9474121B012C0120E030E0A901C5
:100C30000E94040E20E030E040E05FE387FD05C045
:100C4000C201B1010E94620D04C0C201B1010E9443
:100C5000610D0E94CE0DF3E0FC15B0F0F701EC58E9
:100C6000FF4F8D2D816080837F79D12C20E2C29E41
:100C7000D02CCC2411246C297D29319660833196A7
:100C800070830D5F1F4F5AC084E0C81211C0F70176
:100C9000EC58FF4F8D2D846080833196D5018C9167
:100CA0008083319611968C9180833196108219C081
:100CB000B5E0CB1219C0F701EC58FF4F8D2D8560C0
:100CC0008083F5018281F701EB58FF4F8083D501C6
:100CD00011968C9111973196808331968C918F71FA
:100CE00080830C5F1F4F2AC0B9E0CB1227C0F701E9
:100CF000EC58FF4F8D2D89608083F5018381F701CA
:100D0000EB58FF4F8083D50112968C911297319644
:100D1000808311968C911197319680838C91F80184
:100D2000E35DFC4F80838C91853421F08E3421F477
:100D3000108202C0B0E2B0830B5F1F4F6394E6E005
:100D40006E1231CF86E0870D282F30E02815390547
:100D50001CF4809328037BC01092280378C0E09194
:100D60001302F0E0EE0FFF1FE954FD4F6081718127
:100D70007E01F1E1EF0EF11CC7010E940C12E0911F
:100D80001302F0E0EE0FFF1FE952FD4F6081718109
:100D90008E010F5F1F4FC8010E940C128091130239
:100DA00080933103F70101900020E9F73197EE19A4
:100DB000FF09EE0FEE0FEE0FD8010D900020E9F7BE
:100DC0001197A01BB10BA370EA2BE0933203D7015C
:100DD0002AE030E0F70101900020E9F73197AF01F8
:100DE0004E195F09F901EC58FF4FBD016E197F09DB
:100DF0006417750738F49D91EB54FD4F90832F5F76
:100E00003F4FE8CFEB54FD4FA801201B310BB90138
:100E1000640F751FD8010D900020E9F71197A01BF2
:100E2000B10B7A01E01AF10AEA16FB0628F4DA019E
:100E30009D91AD019193EBCF8B018F5F90E060911D
:100E4000B5027091B6020E94110D80931302809139
:100E50002B039EEF900F892B80932B0322E0E0E081
:100E6000822F90E0801791075CF4DC01A75DBC4FF6
:100E70008C91E827F0E0EA5FFD4FE4912F5FF0CF1F
:100E8000D801A75DBC4FEC930F5F1F4FC8018B5477
:100E90009D4FFC01EC58FF4F2EEF20831093DE0393
:100EA0000093DD03D801A65DBC4FE3EFF1E020E243
:100EB0002E0F31913D932E13FCCFFC01EB56FF4FCB
:100EC0008FEF80830E5D1F4F0093DF0381E0A096BC
:100ED0000FB6F894DEBF0FBECDBFDF91CF911F914B
:100EE0000F91FF90EF90DF90CF90BF90AF909F90C9
:100EF0008F907F906F905F904F903F902F900895CC
:100F00000F931F93262F90E0FC01E25DFC4F64914C
:100F1000FC01E65EFC4FE491222311F0462F01C054
:100F200040E0F0E0EE0FFF1FE05FFC4F85919491F1
:100F300000E211EA27E030E00E94CF086115710558
:100F400081059105B1F0DC01CB010196A11DB11D18
:100F500024E0880F991FAA1FBB1F2A95D1F7BC0157
:100F6000CD0133E096958795779567953A95D1F7BA
:100F700003C060E070E0CB011F910F9108950E94C3
:100F8000F7111F920F920FB60F9211242F933F93D8
:100F90004F935F936F937F938F939F93AF93BF9381
:100FA000EF93FF9388E192E00E944D02FF91EF9151
:100FB000BF91AF919F918F917F916F915F914F9171
:100FC0003F912F910F900FBE0F901F9018951F9279
:100FD0000F920FB60F9211242F938F939F93EF933D
:100FE000FF93E0912802F09129028081E0912E0286
:100FF000F0912F0282FD12C09081809131028F5FAB
:101000008F7320913202821751F0E0913102F0E0AB
:10101000E85EFD4F958F8093310201C08081FF9182
:10102000EF919F918F912F910F900FBE0F901F9076
:1010300018951F920F920FB60F9211242F933F9382
:101040008F939F93AF93BF938091E1019091E201C1
:10105000A091E301B091E4013091E00126E0230F7B
:101060002D3720F40296A11DB11D05C029E8230FDC
:101070000396A11DB11D2093E0018093E10190939F
:10108000E201A093E301B093E4018091E501909126
:10109000E601A091E701B091E8010196A11DB11D03
:1010A0008093E5019093E601A093E701B093E801F6
:1010B000BF91AF919F918F913F912F910F900FBE54
:1010C0000F901F9018951F920F920FB60F92112438
:1010D0002F933F934F935F936F937F938F939F9340
:1010E000AF93BF93EF93FF930E941104FF91EF9191
:1010F000BF91AF919F918F917F916F915F914F9130
:101100003F912F910F900FBE0F901F9018951F9237
:101110000F920FB60F9211242F933F934F935F932B
:101120006F937F938F939F93AF93BF93EF93FF93AF
:101130000E941104FF91EF91BF91AF919F918F9108
:101140007F916F915F914F913F912F910F900FBEC3
:101150000F901F9018951F920F920FB60F921124A7
:101160002F933F934F935F936F937F938F939F93AF
:10117000AF93BF93EF93FF930E941104FF91EF9100
:10118000BF91AF919F918F917F916F915F914F919F
:101190003F912F910F900FBE0F901F901895CF92F7
:1011A000DF92EF92FF920F931F93E82FF92F05C064
:1011B000015011092109310961F190819623941799
:1011C000B9F305C0015011092109310911F19081CC
:1011D00096239413F7CFC12CD12CE12CF12C0AC00B
:1011E0008FEFC81AD80AE80AF80A0C151D052E0553
:1011F0003F0579F080818623841791F36C2D7D2D36
:101200008E2D9F2D1F910F91FF90EF90DF90CF902B
:10121000089560E070E080E090E01F910F91FF90F2
:10122000EF90DF90CF90089510921B0210921A0257
:1012300088EE93E0A0E0B0E080931C0290931D0242
:10124000A0931E02B0931F028DE091E090931902CB
:101250008093180285EC90E09093250280932402FD
:1012600084EC90E0909327028093260280EC90E03B
:10127000909329028093280281EC90E090932B02B6
:1012800080932A0282EC90E090932D0280932C02AE
:1012900086EC90E090932F0280932E021092310200
:1012A0001092320210923302109234021092000413
:1012B0001092FF0310920204109201041092040491
:1012C0001092030466E070E080E090E00E942D112F
:1012D0000097A1F0909300048093FF0325E030E095
:1012E00030930204209301042091030430910404FC
:1012F000232B09F086C0FC01108283C08091FF037C
:1013000090910004009711F00E9495101092000433
:101310001092FF031092040410920304109202042E
:10132000109201041092E3031092E20388EE93E01E
:10133000A0E0B0E08093E4039093E503A093E6037C
:10134000B093E7038DE191E09093E1038093E00394
:101350001092F4031092F3031092F6031092F50327
:101360001092F8031092F7031092FA031092F90307
:101370001092FC031092FB038091FD038E7F8093FB
:10138000FD0361E084E00E942D0361E084E00E949F
:10139000E102E2E3F3E0E491E093F003EEE1F3E055
:1013A000E491F0E0EE0FFF1FEA5FFC4F859194910E
:1013B0009093F2038093F10362E083E00E942D0397
:1013C00083E08093EC03E1E3F3E0E491E093ED0349
:1013D000EDE1F3E0E491F0E0EE0FFF1FE05FFC4F82
:1013E000859194919093EF038093EE0310922703DD
:1013F0001092B6021092B5021092DF0310922803E9
:10140000089525E030E030930404209303046CE257
:1014100071E00E94051286CF789484B5826084BD05
:1014200084B5816084BD85B5826085BD85B58160E8
:1014300085BD80916E00816080936E001092810066
:101440008091810082608093810080918100816021
:1014500080938100809180008160809380008091E2
:10146000B10084608093B1008091B000816080936E
:10147000B00080917A00846080937A0080917A0035
:10148000826080937A0080917A008E7F80937A00C8
:1014900080917A00806880937A001092C100E09178
:1014A0002802F091290282E08083E0912402F091E9
:1014B00025021082E0912602F091270287E68083C0
:1014C00010923002E0912C02F0912D0286E0808390
:1014D000E0912A02F0912B02808180618083E0916B
:1014E0002A02F0912B02808188608083E0912A0299
:1014F000F0912B02808180688083E0912A02F09134
:101500002B0280818F7D808362E082E00E942D0328
:101510008BE291E00E94230582E391E00E94110595
:1015200040910304509104046091FF037091000402
:1015300088E192E00E94EA0189E291E00E941105AF
:101540008FE491E00E9423058AE791E00E94230541
:101550008BE291E00E9423058CEA91E00E94230532
:101560008BE291E00E94230561E08DE00E942D0353
:1015700061E08DE00E94E10261E083E00E942D03C2
:101580001092FC031092FB031092FA031092F903DD
:101590001092F8031092F7031092F6031092F503DD
:1015A0001092F4031092F30388E091E020E030E021
:1015B000FC014591559165917491443E55426105F8
:1015C000710509F034C04EE0429FC001439F900D69
:1015D0001124FC01E45FFE4F259134913093F40314
:1015E0002093F303FC01E25FFE4F25913491309389
:1015F000F6032093F503FC01E05FFE4F2591349143
:101600003093F8032093F703FC01EE5EFE4F259123
:1016100034913093FA032093F903FC01EC5EFE4F02
:10162000859194919093FC038093FB0307C02F5FF7
:101630003F4F0E962F30310509F0BACF8091F70356
:101640009091F803892B09F446C09091EC039631F0
:10165000E0F520916800983050F031E09E3008F4B9
:1016600030E081E001C0880F3A95EAF701C084E0DC
:10167000822B80936800983038F09E3040F096318D
:1016800048F4ECE6F0E008C0EDE6F0E005C0EBE67B
:10169000F0E002C0E0E0F0E04081983030F481E01A
:1016A00001C0880F9A95EAF70EC0292F30E09E30CE
:1016B00018F42850310902C02E50310981E001C0D0
:1016C000880F2A95EAF7842B80838091F903909103
:1016D000FA030E940A040E94CD01E6EFF1E0A3EFB5
:1016E000B1E080E020E230E13A0F81115CC19491D9
:1016F000992309F458C19C93119631963A13F5CF6A
:10170000E8EEF1E0A3E0B2E080E020E230E13A0F61
:1017100081114CC19491992309F448C19C9311966D
:1017200031963A13F5CF84EE91E09093B80280930E
:10173000B7028AED91E09093D8028093D70280910E
:10174000B5029091B6029C012F5F3F4FF901EE0F59
:10175000FF1FE954FD4F40EE51E051834083FC01EF
:10176000EE0FFF1FE752FD4F4CED51E051834083D8
:10177000FC01EE0FFF1FE75FFC4F11821082F901A1
:10178000E950FD4F108202969093B6028093B50205
:1017900089EE91E090930A038093090384E080939B
:1017A000F80281E00E9472050E94E7040E9469032A
:1017B0004B015C0194E1C92ED12CE12CF12C0E944B
:1017C0006903DC01CB0188199909AA09BB09883E84
:1017D0009340A105B10558F021E0C21AD108E108F3
:1017E000F10888EE880E83E0981EA11CB11CC1147C
:1017F000D104E104F10419F7809113028111D1CFD2
:1018000060E08DE00E94E10280E4882E82E4982E60
:101810008FE0A82EB12CCCE30E948E030E94E70437
:101820000E948E036B017C0160E083E00E942D0327
:1018300062E084E00E942D030E94CD0180EE93E0DF
:101840000E94C00380EE93E00E94CF03892B61F4D5
:101850000E948E03DC01CB018C199D09AE09BF09E2
:101860000697A105B10570F380EE93E00E94CF03C7
:10187000181619067CF480EE93E00E94E60320918E
:101880000001309101012817390721F090930101DF
:10189000809300018091F1019091F2010196909363
:1018A000F2018093F101059744F081E00E947205F6
:1018B0001092F2011092F10103C080E00E947205C3
:1018C0000E948E0361E084E00E942D0361E082E0CB
:1018D0000E9480076B017C0160E082E00E9480072B
:1018E0009B01AC012C0D3D1D4E1D5F1D2093ED0194
:1018F0003093EE014093EF015093F001C501B40124
:101900000E94250D3093EC012093EB012F3F8FEFC8
:10191000380729F41092EA011092E90109C0C29F28
:10192000C001C39F900D11249093EA018093E901B7
:1019300083EB91E00E941105C090EB01D090EC0187
:101940000D2C000CEE08FF08F7FE14C0E091180201
:10195000F09119020190F081E02D6DE288E192E0B2
:10196000099566277727CB016C197D098E099F0998
:101970004AE003C04AE0C701B6010E94310589EB85
:1019800091E00E9411056091E9017091EA0180E007
:1019900090E04AE00E94310589E291E00E94110541
:1019A0000E94D70239CF2C9381E0A6CE2C9381E000
:1019B000B6CE8DE191E09093E1038093E003209116
:1019C000EC03263140F5283028F02E3030F0ECE6DC
:1019D000F0E005C0EDE6F0E002C0EBE6F0E03081BB
:1019E000283038F481E090E001C0880F2A95EAF7AA
:1019F0000FC0422F50E02E3018F44850510902C059
:101A00004E50510981E090E001C0880F4A95EAF7F5
:101A10008095832380838091FF03909100040C9430
:101A2000951097FB072E16F4009407D077FD09D088
:101A30000E94470D07FC05D03EF4909581959F4F7D
:101A40000895709561957F4F0895A1E21A2EAA1B03
:101A5000BB1BFD010DC0AA1FBB1FEE1FFF1FA2175E
:101A6000B307E407F50720F0A21BB30BE40BF50B5B
:101A7000661F771F881F991F1A9469F760957095E4
:101A8000809590959B01AC01BD01CF010895AA1BE3
:101A9000BB1B51E107C0AA1FBB1FA617B70710F059
:101AA000A61BB70B881F991F5A95A9F7809590958B
:101AB000BC01CD010895EE0FFF1F0590F491E02DBC
:101AC00009945058BB27AA270E94790D0C94F8124C
:101AD0000E94EA1238F00E94F11220F039F49F3F80
:101AE00019F426F40C94E7120EF4E095E7FB0C943D
:101AF000E112E92F0E94091358F3BA17620773071E
:101B00008407950720F079F4A6F50C942B130EF4B6
:101B1000E0950B2EBA2FA02D0B01B90190010C01FD
:101B2000CA01A0011124FF27591B99F0593F50F415
:101B3000503E68F11A16F040A22F232F342F44276D
:101B4000585FF3CF469537952795A795F040539565
:101B5000C9F77EF41F16BA0B620B730B840BBAF035
:101B60009150A1F0FF0FBB1F661F771F881FC2F7A0
:101B70000EC0BA0F621F731F841F48F487957795B4
:101B80006795B795F7959E3F08F0B0CF9395880F6E
:101B900008F09927EE0F9795879508950E94D50D27
:101BA0006894B1110C942C1308950E94111388F0BD
:101BB0009F5798F0B92F9927B751B0F0E1F0660F11
:101BC000771F881F991F1AF0BA95C9F714C0B13052
:101BD00091F00E942B13B1E008950C942B13672F02
:101BE000782F8827B85F39F0B93FCCF38695779581
:101BF0006795B395D9F73EF490958095709561956A
:101C00007F4F8F4F9F4F08950E94501208F48FEF1F
:101C10000895FA01EE0FFF1F309621053105A1F15D
:101C20006115710561F48038BFE39B0749F1689441
:101C30009038810561F08038BFEF9B0741F0992310
:101C40004AF5FF3FE1053105210519F1E8940894B3
:101C5000E795D901AA2329F4AB2FBE2FF85FD0F363
:101C600010C0FF5F70F4A695E0F7F73950F019F057
:101C7000FF3A38F49F779F930DD00F9007FC905850
:101C8000089546F00C94E71260E070E080E89FE36E
:101C900008954FE79F775F934F933F932F930E9451
:101CA000040F2F913F914F915F910E9474120C94F9
:101CB000610E29F416F00C94E1120C942B130C9481
:101CC000E7120E941113A8F39638A0F707F80F92B5
:101CD000E8942BE33AEA48EB5FE70E948A120F92FE
:101CE0000F920F924DB75EB70F920E944C0FE8E62D
:101CF000F0E00E94930E4F915F91EF91FF91E59577
:101D0000EE1FFF1F49F0FE57E0684427EE0F441F07
:101D1000FA95E1F74195550B0E94C60E0F9007FE0C
:101D20000C94BA0E0895DF93CF931F930F93FF92F5
:101D3000EF92DF927B018C01689406C0DA2EEF01EE
:101D40000E948712FE01E894A59125913591459155
:101D50005591A6F3EF010E94790DFE019701A801AC
:101D6000DA9469F7DF90EF90FF900F911F91CF9178
:101D7000DF9108959B01AC0160E070E080E89FE393
:101D80000C94800F0C94E1120C94F20F0E9411132A
:101D9000D8F39923C9F3940F511DA3F391505040E8
:101DA00094F059F0882332F0660F771F881F915006
:101DB0005040C1F79E3F51052CF7880F911D969515
:101DC000879597F908955F3FACF0983E9CF0BB274C
:101DD000869577956795B79508F4B1609395C1F7A7
:101DE000BB0F58F711F460FFE8CF6F5F7F4F8F4F45
:101DF0009F4FE3CF0C942C1316F00C94F20F0C941D
:101E0000E71268940C94E1120E941113A8F399232D
:101E1000C1F3AEF3DF93CF931F930F93FF92C92FBC
:101E2000DD2788232AF02197660F771F881FDAF7AE
:101E300020E030E040E85FEB9FE3883920F0803E0F
:101E400038F021968F770E94620DE0E9F0E004C03F
:101E50000E94620DEDEBF0E00E94930E8B01BE013B
:101E6000EC01FB2E6F5771097595771F880B990B45
:101E70000E94151228E132E741E35FE30E948712D6
:101E8000AF2D9801AE01FF900F911F91CF91DF917F
:101E90000E94790D0C94F812FA01DC01AA0FBB1F05
:101EA0009B01AC01BF5728F42227332744275078E1
:101EB00020C0B75190F4AB2F002446953795279555
:101EC000011CA395D2F3002071F0220F331F441F91
:101ED000B395DAF30ED00C94610D61307105A0E872
:101EE0008A07B94630F49B01AC016627772788271B
:101EF0009078309621F02083318342835383089574
:101F00000E94940F0C94F8120E94F11258F00E9453
:101F1000EA1240F029F45F3F29F00C94E1125111CC
:101F20000C942C130C94E7120E94091368F3992364
:101F3000B1F3552391F3951B550BBB27AA276217C5
:101F40007307840738F09F5F5F4F220F331F441FD2
:101F5000AA1FA9F335D00E2E3AF0E0E832D0915006
:101F60005040E695001CCAF72BD0FE2F29D0660FF3
:101F7000771F881FBB1F261737074807AB07B0E836
:101F800009F0BB0B802DBF01FF2793585F4F3AF03C
:101F90009E3F510578F00C94E1120C942C135F3F96
:101FA000E4F3983ED4F3869577956795B795F795C2
:101FB0009F5FC9F7880F911D9695879597F90895AA
:101FC000E1E0660F771F881FBB1F62177307840746
:101FD000BA0720F0621B730B840BBA0BEE1F88F755
:101FE000E09508959F3F31F0915020F487957795C3
:101FF0006795B795880F911D9695879597F90895E0
:10200000CF93DF938230910510F482E090E0E0916D
:102010000704F091080420E030E0C0E0D0E0309701
:1020200011F14081518148175907C0F048175907ED
:1020300061F482819381209719F09B838A832BC05E
:10204000909308048093070426C02115310519F0E8
:102050004217530718F49A01BE01DF01EF01028015
:10206000F381E02DDCCF2115310509F1281B390B57
:102070002430310590F412968D919C91139761153F
:10208000710521F0FB019383828304C090930804BF
:1020900080930704FD01329644C0FD01E20FF31F57
:1020A00081939193225031092D933C933AC0209112
:1020B000050430910604232B41F420910501309151
:1020C000060130930604209305042091030130910A
:1020D00004012115310541F42DB73EB740910701A8
:1020E00050910801241B350BE0910504F091060482
:1020F000E217F307A0F42E1B3F0B2817390778F0DF
:10210000AC014E5F5F4F2417350748F04E0F5F1F3D
:1021100050930604409305048193919302C0E0E03C
:10212000F0E0CF01DF91CF9108950F931F93CF93EC
:10213000DF93009709F48CC0FC013297138212825E
:1021400000910704109108040115110581F4208104
:102150003181820F931F20910504309106042817C6
:10216000390779F5F0930604E093050471C0D801AE
:1021700040E050E0AE17BF0750F412962D913C910D
:102180001397AD012115310509F1D901F3CF9D0157
:10219000DA013383228360817181860F971F821752
:1021A000930769F4EC0128813981260F371F2E5FD0
:1021B0003F4F318320838A819B8193838283452B88
:1021C00029F4F0930804E093070442C01396FC93AB
:1021D000EE931297ED01499159919E01240F351FFD
:1021E000E217F30771F480819181840F951F0296A5
:1021F00011969C938E938281938113969C938E93D8
:102200001297E0E0F0E0D80112968D919C9113971F
:10221000009719F0F8018C01F6CF8D919C919801EF
:102220002E5F3F4F820F931F2091050430910604CB
:102230002817390769F4309729F41092080410928E
:10224000070402C01382128210930604009305044F
:10225000DF91CF911F910F910895A0E0B0E0E3E3EB
:10226000F1E10C943613EC01009721F4CB010E94AC
:102270000010B8C0FC01E60FF71F9C012250310985
:10228000E217F30708F4ACC0D9010D911C91119726
:1022900006171707B0F00530110508F49FC0C801F4
:1022A00004978617970708F499C002501109061B76
:1022B000170B019311936D937C93CF010E9495109E
:1022C0008DC05B01A01AB10A4C01800E911EA09135
:1022D0000704B091080440E050E0E12CF12C109785
:1022E00009F44AC0A815B905D1F56D907C901197F5
:1022F000630182E0C80ED11CCA14DB0480F1A30183
:102300004A195B096A0182E0C80ED11C1296BC9082
:1023100012971396AC91B5E0CB16D10440F0B2827F
:10232000A38351834083D9016D937C930AC00E5FD0
:102330001F4FC301800F911FF90191838083EB2D03
:10234000FA2FE114F10431F0D7011396FC93EE93C8
:10235000129744C0F0930804E09307043FC08D91A6
:102360009C9111974817590708F4AC017D0112960A
:102370000D90BC91A02DB3CF8091050490910604DF
:1023800088159905E1F446175707C8F480910301B1
:1023900090910401009741F48DB79EB740910701D9
:1023A00050910801841B950BE817F907C8F4F093C6
:1023B0000604E0930504F901718360830FC0CB012B
:1023C0000E9400107C01009759F0A801BE010E94F4
:1023D000FC11CE010E949510C70104C0CE0102C0BD
:1023E00080E090E0CDB7DEB7EEE00C94521381E0D0
:1023F00090E0F8940C946913FB01DC0102C0019099
:102400000D9241505040D8F70895FB01DC01019036
:102410000D920020E1F70895FB01DC0105900D927B
:102420000020E1F70895E89409C097FB3EF49095E9
:102430008095709561957F4F8F4F9F4F9923A9F09D
:10244000F92F96E9BB279395F6958795779567952C
:10245000B795F111F8CFFAF4BB0F11F460FF1BC070
:102460006F5F7F4F8F4F9F4F16C0882311F096E903
:1024700011C0772321F09EE8872F762F05C06623B1
:1024800071F096E8862F70E060E02AF09A95660F6A
:10249000771F881FDAF7880F9695879597F9089523
:1024A000990F0008550FAA0BE0E8FEEF1616170665
:1024B000E807F907C0F012161306E407F50798F0CD
:1024C000621B730B840B950B39F40A2661F0232BE6
:1024D000242B252B21F408950A2609F4A140A69562
:1024E0008FEF811D811D08950E9487120C94F812B0
:1024F0000E94EA1238F00E94F11220F0952311F0A8
:102500000C94E1120C94E71211240C942C130E94E9
:10251000091370F3959FC1F3950F50E0551F629F0B
:10252000F001729FBB27F00DB11D639FAA27F00D2C
:10253000B11DAA1F649F6627B00DA11D661F829F53
:102540002227B00DA11D621F739FB00DA11D621F38
:10255000839FA00D611D221F749F3327A00D611D55
:10256000231F849F600D211D822F762F6A2F112437
:102570009F5750409AF0F1F088234AF0EE0FFF1F6A
:10258000BB1F661F771F881F91505040A9F79E3FC1
:10259000510580F00C94E1120C942C135F3FE4F38E
:1025A000983ED4F3869577956795B795F795E79517
:1025B0009F5FC1F7FE2B880F911D9695879597F920
:1025C000089597F99F6780E870E060E008959FEFB5
:1025D00080EC089500240A941616170618060906BA
:1025E000089500240A941216130614060506089589
:1025F000092E0394000C11F4882352F0BB0F40F411
:10260000BF2B11F460FF04C06F5F7F4F8F4F9F4F50
:10261000089557FD9058440F551F59F05F3F71F0D2
:102620004795880F97FB991F61F09F3F79F0879539
:102630000895121613061406551FF2CF4695F1DFC2
:1026400008C0161617061806991FF1CF8695710552
:10265000610508940895E894BB2766277727CB0186
:1026600097F908952F923F924F925F926F927F92C7
:102670008F929F92AF92BF92CF92DF92EF92FF9292
:102680000F931F93CF93DF93CDB7DEB7CA1BDB0B3E
:102690000FB6F894DEBF0FBECDBF09942A883988E3
:1026A00048885F846E847D848C849B84AA84B984EA
:1026B000C884DF80EE80FD800C811B81AA81B981F6
:1026C000CE0FD11D0FB6F894DEBF0FBECDBFED010A
:1026D000089511E0C2EAD1E004C0FE010E945B0D42
:0C26E0002196C33AD107C9F7F894FFCF48
:1026EC00F00006000009048000000000006E02EA01
:1026FC0001370215022902B502000000006804EA45
:10270C0001CF03E603A603C0030D0A00762E312E7B
:10271C00300052432D54686F75676874732048619C
:10272C006C6C2052504D2D53656E736F722000648B
:10273C00657369676E206279205465726F205361EE
:10274C006C6D696E656E20402052432D54686F7518
:10275C0067687473203230313700467265652061CA
:10276C006E64206F70656E2D736F75726365202DAE
:10277C002052656C656173656420756E64657220AA
:10278C004D49542D6C6963656E73650052656164C7
:10279C007921004672657120002052504D200000B6
:00000001FF
